{
  "abi": [
    {
      "inputs": [
        {
          "internalType": "contract IJBDirectory",
          "name": "_directory",
          "type": "address"
        },
        {
          "internalType": "contract IJBFundingCycleStore",
          "name": "_fundingCycleStore",
          "type": "address"
        },
        {
          "internalType": "contract IJBPrices",
          "name": "_prices",
          "type": "address"
        }
      ],
      "stateMutability": "nonpayable",
      "type": "constructor"
    },
    {
      "inputs": [],
      "name": "CURRENCY_MISMATCH",
      "type": "error"
    },
    {
      "inputs": [],
      "name": "DISTRIBUTION_AMOUNT_LIMIT_REACHED",
      "type": "error"
    },
    {
      "inputs": [],
      "name": "FUNDING_CYCLE_DISTRIBUTION_PAUSED",
      "type": "error"
    },
    {
      "inputs": [],
      "name": "FUNDING_CYCLE_PAYMENT_PAUSED",
      "type": "error"
    },
    {
      "inputs": [],
      "name": "FUNDING_CYCLE_REDEEM_PAUSED",
      "type": "error"
    },
    {
      "inputs": [],
      "name": "INADEQUATE_CONTROLLER_ALLOWANCE",
      "type": "error"
    },
    {
      "inputs": [],
      "name": "INADEQUATE_PAYMENT_TERMINAL_STORE_BALANCE",
      "type": "error"
    },
    {
      "inputs": [],
      "name": "INSUFFICIENT_TOKENS",
      "type": "error"
    },
    {
      "inputs": [],
      "name": "INVALID_AMOUNT_TO_SEND_DELEGATE",
      "type": "error"
    },
    {
      "inputs": [],
      "name": "INVALID_FUNDING_CYCLE",
      "type": "error"
    },
    {
      "inputs": [],
      "name": "PAYMENT_TERMINAL_MIGRATION_NOT_ALLOWED",
      "type": "error"
    },
    {
      "inputs": [
        {
          "internalType": "uint256",
          "name": "prod1",
          "type": "uint256"
        },
        {
          "internalType": "uint256",
          "name": "denominator",
          "type": "uint256"
        }
      ],
      "name": "PRBMath__MulDivOverflow",
      "type": "error"
    },
    {
      "inputs": [
        {
          "internalType": "contract IJBSingleTokenPaymentTerminal",
          "name": "",
          "type": "address"
        },
        {
          "internalType": "uint256",
          "name": "",
          "type": "uint256"
        }
      ],
      "name": "balanceOf",
      "outputs": [
        {
          "internalType": "uint256",
          "name": "",
          "type": "uint256"
        }
      ],
      "stateMutability": "view",
      "type": "function"
    },
    {
      "inputs": [
        {
          "internalType": "contract IJBSingleTokenPaymentTerminal",
          "name": "_terminal",
          "type": "address"
        },
        {
          "internalType": "uint256",
          "name": "_projectId",
          "type": "uint256"
        }
      ],
      "name": "currentOverflowOf",
      "outputs": [
        {
          "internalType": "uint256",
          "name": "",
          "type": "uint256"
        }
      ],
      "stateMutability": "view",
      "type": "function"
    },
    {
      "inputs": [
        {
          "internalType": "uint256",
          "name": "_projectId",
          "type": "uint256"
        },
        {
          "internalType": "uint256",
          "name": "_tokenCount",
          "type": "uint256"
        },
        {
          "internalType": "uint256",
          "name": "_totalSupply",
          "type": "uint256"
        },
        {
          "internalType": "uint256",
          "name": "_overflow",
          "type": "uint256"
        }
      ],
      "name": "currentReclaimableOverflowOf",
      "outputs": [
        {
          "internalType": "uint256",
          "name": "",
          "type": "uint256"
        }
      ],
      "stateMutability": "view",
      "type": "function"
    },
    {
      "inputs": [
        {
          "internalType": "contract IJBSingleTokenPaymentTerminal",
          "name": "_terminal",
          "type": "address"
        },
        {
          "internalType": "uint256",
          "name": "_projectId",
          "type": "uint256"
        },
        {
          "internalType": "uint256",
          "name": "_tokenCount",
          "type": "uint256"
        },
        {
          "internalType": "bool",
          "name": "_useTotalOverflow",
          "type": "bool"
        }
      ],
      "name": "currentReclaimableOverflowOf",
      "outputs": [
        {
          "internalType": "uint256",
          "name": "",
          "type": "uint256"
        }
      ],
      "stateMutability": "view",
      "type": "function"
    },
    {
      "inputs": [
        {
          "internalType": "uint256",
          "name": "_projectId",
          "type": "uint256"
        },
        {
          "internalType": "uint256",
          "name": "_decimals",
          "type": "uint256"
        },
        {
          "internalType": "uint256",
          "name": "_currency",
          "type": "uint256"
        }
      ],
      "name": "currentTotalOverflowOf",
      "outputs": [
        {
          "internalType": "uint256",
          "name": "",
          "type": "uint256"
        }
      ],
      "stateMutability": "view",
      "type": "function"
    },
    {
      "inputs": [],
      "name": "directory",
      "outputs": [
        {
          "internalType": "contract IJBDirectory",
          "name": "",
          "type": "address"
        }
      ],
      "stateMutability": "view",
      "type": "function"
    },
    {
      "inputs": [],
      "name": "fundingCycleStore",
      "outputs": [
        {
          "internalType": "contract IJBFundingCycleStore",
          "name": "",
          "type": "address"
        }
      ],
      "stateMutability": "view",
      "type": "function"
    },
    {
      "inputs": [],
      "name": "prices",
      "outputs": [
        {
          "internalType": "contract IJBPrices",
          "name": "",
          "type": "address"
        }
      ],
      "stateMutability": "view",
      "type": "function"
    },
    {
      "inputs": [
        {
          "internalType": "uint256",
          "name": "_projectId",
          "type": "uint256"
        },
        {
          "internalType": "uint256",
          "name": "_amount",
          "type": "uint256"
        }
      ],
      "name": "recordAddedBalanceFor",
      "outputs": [],
      "stateMutability": "nonpayable",
      "type": "function"
    },
    {
      "inputs": [
        {
          "internalType": "uint256",
          "name": "_projectId",
          "type": "uint256"
        },
        {
          "internalType": "uint256",
          "name": "_amount",
          "type": "uint256"
        },
        {
          "internalType": "uint256",
          "name": "_currency",
          "type": "uint256"
        }
      ],
      "name": "recordDistributionFor",
      "outputs": [
        {
          "components": [
            {
              "internalType": "uint256",
              "name": "number",
              "type": "uint256"
            },
            {
              "internalType": "uint256",
              "name": "configuration",
              "type": "uint256"
            },
            {
              "internalType": "uint256",
              "name": "basedOn",
              "type": "uint256"
            },
            {
              "internalType": "uint256",
              "name": "start",
              "type": "uint256"
            },
            {
              "internalType": "uint256",
              "name": "duration",
              "type": "uint256"
            },
            {
              "internalType": "uint256",
              "name": "weight",
              "type": "uint256"
            },
            {
              "internalType": "uint256",
              "name": "discountRate",
              "type": "uint256"
            },
            {
              "internalType": "contract IJBFundingCycleBallot",
              "name": "ballot",
              "type": "address"
            },
            {
              "internalType": "uint256",
              "name": "metadata",
              "type": "uint256"
            }
          ],
          "internalType": "struct JBFundingCycle",
          "name": "fundingCycle",
          "type": "tuple"
        },
        {
          "internalType": "uint256",
          "name": "distributedAmount",
          "type": "uint256"
        }
      ],
      "stateMutability": "nonpayable",
      "type": "function"
    },
    {
      "inputs": [
        {
          "internalType": "uint256",
          "name": "_projectId",
          "type": "uint256"
        }
      ],
      "name": "recordMigration",
      "outputs": [
        {
          "internalType": "uint256",
          "name": "balance",
          "type": "uint256"
        }
      ],
      "stateMutability": "nonpayable",
      "type": "function"
    },
    {
      "inputs": [
        {
          "internalType": "address",
          "name": "_payer",
          "type": "address"
        },
        {
          "components": [
            {
              "internalType": "address",
              "name": "token",
              "type": "address"
            },
            {
              "internalType": "uint256",
              "name": "value",
              "type": "uint256"
            },
            {
              "internalType": "uint256",
              "name": "decimals",
              "type": "uint256"
            },
            {
              "internalType": "uint256",
              "name": "currency",
              "type": "uint256"
            }
          ],
          "internalType": "struct JBTokenAmount",
          "name": "_amount",
          "type": "tuple"
        },
        {
          "internalType": "uint256",
          "name": "_projectId",
          "type": "uint256"
        },
        {
          "internalType": "uint256",
          "name": "_baseWeightCurrency",
          "type": "uint256"
        },
        {
          "internalType": "address",
          "name": "_beneficiary",
          "type": "address"
        },
        {
          "internalType": "string",
          "name": "_memo",
          "type": "string"
        },
        {
          "internalType": "bytes",
          "name": "_metadata",
          "type": "bytes"
        }
      ],
      "name": "recordPaymentFrom",
      "outputs": [
        {
          "components": [
            {
              "internalType": "uint256",
              "name": "number",
              "type": "uint256"
            },
            {
              "internalType": "uint256",
              "name": "configuration",
              "type": "uint256"
            },
            {
              "internalType": "uint256",
              "name": "basedOn",
              "type": "uint256"
            },
            {
              "internalType": "uint256",
              "name": "start",
              "type": "uint256"
            },
            {
              "internalType": "uint256",
              "name": "duration",
              "type": "uint256"
            },
            {
              "internalType": "uint256",
              "name": "weight",
              "type": "uint256"
            },
            {
              "internalType": "uint256",
              "name": "discountRate",
              "type": "uint256"
            },
            {
              "internalType": "contract IJBFundingCycleBallot",
              "name": "ballot",
              "type": "address"
            },
            {
              "internalType": "uint256",
              "name": "metadata",
              "type": "uint256"
            }
          ],
          "internalType": "struct JBFundingCycle",
          "name": "fundingCycle",
          "type": "tuple"
        },
        {
          "internalType": "uint256",
          "name": "tokenCount",
          "type": "uint256"
        },
        {
          "components": [
            {
              "internalType": "contract IJBPayDelegate",
              "name": "delegate",
              "type": "address"
            },
            {
              "internalType": "uint256",
              "name": "amount",
              "type": "uint256"
            }
          ],
          "internalType": "struct JBPayDelegateAllocation[]",
          "name": "delegateAllocations",
          "type": "tuple[]"
        },
        {
          "internalType": "string",
          "name": "memo",
          "type": "string"
        }
      ],
      "stateMutability": "nonpayable",
      "type": "function"
    },
    {
      "inputs": [
        {
          "internalType": "address",
          "name": "_holder",
          "type": "address"
        },
        {
          "internalType": "uint256",
          "name": "_projectId",
          "type": "uint256"
        },
        {
          "internalType": "uint256",
          "name": "_tokenCount",
          "type": "uint256"
        },
        {
          "internalType": "string",
          "name": "_memo",
          "type": "string"
        },
        {
          "internalType": "bytes",
          "name": "_metadata",
          "type": "bytes"
        }
      ],
      "name": "recordRedemptionFor",
      "outputs": [
        {
          "components": [
            {
              "internalType": "uint256",
              "name": "number",
              "type": "uint256"
            },
            {
              "internalType": "uint256",
              "name": "configuration",
              "type": "uint256"
            },
            {
              "internalType": "uint256",
              "name": "basedOn",
              "type": "uint256"
            },
            {
              "internalType": "uint256",
              "name": "start",
              "type": "uint256"
            },
            {
              "internalType": "uint256",
              "name": "duration",
              "type": "uint256"
            },
            {
              "internalType": "uint256",
              "name": "weight",
              "type": "uint256"
            },
            {
              "internalType": "uint256",
              "name": "discountRate",
              "type": "uint256"
            },
            {
              "internalType": "contract IJBFundingCycleBallot",
              "name": "ballot",
              "type": "address"
            },
            {
              "internalType": "uint256",
              "name": "metadata",
              "type": "uint256"
            }
          ],
          "internalType": "struct JBFundingCycle",
          "name": "fundingCycle",
          "type": "tuple"
        },
        {
          "internalType": "uint256",
          "name": "reclaimAmount",
          "type": "uint256"
        },
        {
          "components": [
            {
              "internalType": "contract IJBRedemptionDelegate",
              "name": "delegate",
              "type": "address"
            },
            {
              "internalType": "uint256",
              "name": "amount",
              "type": "uint256"
            }
          ],
          "internalType": "struct JBRedemptionDelegateAllocation[]",
          "name": "delegateAllocations",
          "type": "tuple[]"
        },
        {
          "internalType": "string",
          "name": "memo",
          "type": "string"
        }
      ],
      "stateMutability": "nonpayable",
      "type": "function"
    },
    {
      "inputs": [
        {
          "internalType": "uint256",
          "name": "_projectId",
          "type": "uint256"
        },
        {
          "internalType": "uint256",
          "name": "_amount",
          "type": "uint256"
        },
        {
          "internalType": "uint256",
          "name": "_currency",
          "type": "uint256"
        }
      ],
      "name": "recordUsedAllowanceOf",
      "outputs": [
        {
          "components": [
            {
              "internalType": "uint256",
              "name": "number",
              "type": "uint256"
            },
            {
              "internalType": "uint256",
              "name": "configuration",
              "type": "uint256"
            },
            {
              "internalType": "uint256",
              "name": "basedOn",
              "type": "uint256"
            },
            {
              "internalType": "uint256",
              "name": "start",
              "type": "uint256"
            },
            {
              "internalType": "uint256",
              "name": "duration",
              "type": "uint256"
            },
            {
              "internalType": "uint256",
              "name": "weight",
              "type": "uint256"
            },
            {
              "internalType": "uint256",
              "name": "discountRate",
              "type": "uint256"
            },
            {
              "internalType": "contract IJBFundingCycleBallot",
              "name": "ballot",
              "type": "address"
            },
            {
              "internalType": "uint256",
              "name": "metadata",
              "type": "uint256"
            }
          ],
          "internalType": "struct JBFundingCycle",
          "name": "fundingCycle",
          "type": "tuple"
        },
        {
          "internalType": "uint256",
          "name": "usedAmount",
          "type": "uint256"
        }
      ],
      "stateMutability": "nonpayable",
      "type": "function"
    },
    {
      "inputs": [
        {
          "internalType": "contract IJBSingleTokenPaymentTerminal",
          "name": "",
          "type": "address"
        },
        {
          "internalType": "uint256",
          "name": "",
          "type": "uint256"
        },
        {
          "internalType": "uint256",
          "name": "",
          "type": "uint256"
        }
      ],
      "name": "usedDistributionLimitOf",
      "outputs": [
        {
          "internalType": "uint256",
          "name": "",
          "type": "uint256"
        }
      ],
      "stateMutability": "view",
      "type": "function"
    },
    {
      "inputs": [
        {
          "internalType": "contract IJBSingleTokenPaymentTerminal",
          "name": "",
          "type": "address"
        },
        {
          "internalType": "uint256",
          "name": "",
          "type": "uint256"
        },
        {
          "internalType": "uint256",
          "name": "",
          "type": "uint256"
        }
      ],
      "name": "usedOverflowAllowanceOf",
      "outputs": [
        {
          "internalType": "uint256",
          "name": "",
          "type": "uint256"
        }
      ],
      "stateMutability": "view",
      "type": "function"
    }
  ],
  "bytecode": {
    "object": "0x60e06040523480156200001157600080fd5b50604051620033a6380380620033a6833981016040819052620000349162000070565b60016000556001600160a01b0392831660805290821660a0521660c052620000c4565b6001600160a01b03811681146200006d57600080fd5b50565b6000806000606084860312156200008657600080fd5b8351620000938162000057565b6020850151909350620000a68162000057565b6040850151909250620000b98162000057565b809150509250925092565b60805160a05160c05161322662000180600039600081816102630152818161063901528181610b640152818161201201526121f601526000818161018b015281816103370152818161078701528181610c3201528181610d2e0152818161113b01528181611407015281816114d00152818161180601528181611ba8015261227d015260008181610229015281816103e701528181610f6e015281816116b2015281816118df01528181611e49015261209501526132266000f3fe608060405234801561001057600080fd5b50600436106100ff5760003560e01c8063c294b2f411610097578063d49031c011610066578063d49031c014610285578063d4c3a8d214610298578063e7c8e3e3146102c9578063e8ba563a146102de57600080fd5b8063c294b2f414610211578063c41c2f2414610224578063c66445971461024b578063d3419bf31461025e57600080fd5b80636bb6a5ad116100d35780636bb6a5ad146101c5578063a2df1f95146101d8578063a57c7f59146101eb578063b753d7e9146101fe57600080fd5b8062fdd58e1461010457806325386715146101425780632fa1b39114610163578063557e715514610186575b600080fd5b61012f610112366004612490565b600160209081526000928352604080842090915290825290205481565b6040519081526020015b60405180910390f35b6101556101503660046124bc565b61030f565b604051610139929190612547565b6101766101713660046126c7565b61075c565b60405161013994939291906127d8565b6101ad7f000000000000000000000000000000000000000000000000000000000000000081565b6040516001600160a01b039091168152602001610139565b61012f6101d3366004612857565b610c0f565b6101766101e6366004612870565b610d03565b61012f6101f9366004612911565b6113cc565b61012f61020c3660046124bc565b611496565b61012f61021f366004612943565b6114ad565b6101ad7f000000000000000000000000000000000000000000000000000000000000000081565b6101556102593660046124bc565b6117de565b6101ad7f000000000000000000000000000000000000000000000000000000000000000081565b61012f610293366004612490565b611b9f565b61012f6102a6366004612992565b600360209081526000938452604080852082529284528284209052825290205481565b6102dc6102d73660046129c7565b611c7d565b005b61012f6102ec366004612992565b600260209081526000938452604080852082529284528284209052825290205481565b610317612423565b6000610321611cc6565b6040516321d1336160e11b8152600481018690527f00000000000000000000000000000000000000000000000000000000000000006001600160a01b0316906343a266c29060240161012060405180830381865afa158015610387573d6000803e3d6000fd5b505050506040513d601f19601f820116820180604052508101906103ab91906129f4565b3360009081526003602090815260408083208984528252808320828501518452909152812054919350906103e0908690612a8a565b90506000807f00000000000000000000000000000000000000000000000000000000000000006001600160a01b0316635dd8f6aa896040518263ffffffff1660e01b815260040161043391815260200190565b602060405180830381865afa158015610450573d6000803e3d6000fd5b505050506040513d601f19601f820116820180604052508101906104749190612a9d565b6001600160a01b0316637a81b56289876020015133336001600160a01b031663fc0c546a6040518163ffffffff1660e01b8152600401602060405180830381865afa1580156104c7573d6000803e3d6000fd5b505050506040513d601f19601f820116820180604052508101906104eb9190612a9d565b6040518563ffffffff1660e01b815260040161050a9493929190612aba565b6040805180830381865afa158015610526573d6000803e3d6000fd5b505050506040513d601f19601f8201168201806040525081019061054a9190612ae1565b915091508183118061055a575081155b1561057857604051635b76558960e11b815260040160405180910390fd5b8086146105985760405163e56ea4e760e01b815260040160405180910390fd5b6000336001600160a01b031663e5a6b10f6040518163ffffffff1660e01b8152600401602060405180830381865afa1580156105d8573d6000803e3d6000fd5b505050506040513d601f19601f820116820180604052508101906105fc9190612b05565b90508087146106b7576106b2886106156012600a612c02565b604051635268657960e11b8152600481018b905260248101859052601260448201527f00000000000000000000000000000000000000000000000000000000000000006001600160a01b03169063a4d0caf2906064015b602060405180830381865afa158015610689573d6000803e3d6000fd5b505050506040513d601f19601f820116820180604052508101906106ad9190612b05565b611d24565b6106b9565b875b94506106c7338a8884611df1565b8511156106e7576040516317e53f6760e11b815260040160405180910390fd5b3360008181526003602090815260408083208d845282528083208a83015184528252808320889055928252600181528282208c83529052205461072b908690612c0e565b3360009081526001602090815260408083208d845290915290205550610754925061206b915050565b935093915050565b610764612423565b6000606080610771611cc6565b6040516321d1336160e11b8152600481018b90527f00000000000000000000000000000000000000000000000000000000000000006001600160a01b0316906343a266c29060240161012060405180830381865afa1580156107d7573d6000803e3d6000fd5b505050506040513d601f19601f820116820180604052508101906107fb91906129f4565b80519094506000036108205760405163174b338d60e11b815260040160405180910390fd5b61010084015160481c60019081160361084c5760405163a3bb913360e01b815260040160405180910390fd5b61010084015160009060521c60019081161480156108825750600061087686610100015160541c90565b6001600160a01b031614155b156109d4576000604051806101400160405280336001600160a01b031681526020018f6001600160a01b031681526020018e8036038101906108c49190612c21565b815260208082018f905288015160408201526001600160a01b038c16606082015260a080890151608083015261010089015191019060181c61ffff1681526020018a8a8080601f016020809104026020016040519081016040528093929190818152602001838380828437600092019190915250505090825250602001889052905061095586610100015160541c90565b6001600160a01b031663d46cf171826040518263ffffffff1660e01b81526004016109809190612c90565b6000604051808303816000875af115801561099f573d6000803e3d6000fd5b505050506040513d6000823e601f3d908101601f191682016040526109c79190810190612dfb565b955093509150610a159050565b8460a00151905087878080601f0160208091040260200160405190810160405280939291908181526020018383808284376000920191909152509294505050505b825160208d01359015610a915760005b8451811015610a8f576000858281518110610a4257610a42612eec565b602002602001015160200151905080600014610a865782811115610a79576040516336a8da9360e11b815260040160405180910390fd5b610a838184612c0e565b92505b50600101610a25565b505b8c60200135600003610aa9575060009350610bf69050565b8015610b10573360009081526001602090815260408083208f8452909152902054610ad5908290612a8a565b60016000336001600160a01b03166001600160a01b0316815260200190815260200160002060008e8152602001908152602001600020819055505b5080600003610b23575060009250610bf6565b60408c0135600060608e01358c14610bd457604051635268657960e11b815260608f01356004820152602481018d9052604481018390526001600160a01b037f0000000000000000000000000000000000000000000000000000000000000000169063a4d0caf290606401602060405180830381865afa158015610bab573d6000803e3d6000fd5b505050506040513d601f19601f82011682018060405250810190610bcf9190612b05565b610bdf565b610bdf82600a612c02565b9050610bf08e602001358483611d24565b95505050505b610c006001600055565b98509850985098945050505050565b6000610c19611cc6565b6040516321d1336160e11b8152600481018390526000907f00000000000000000000000000000000000000000000000000000000000000006001600160a01b0316906343a266c29060240161012060405180830381865afa158015610c82573d6000803e3d6000fd5b505050506040513d601f19601f82011682018060405250810190610ca691906129f4565b610100810151909150604d1c600190811614610cd5576040516373e4f05f60e11b815260040160405180910390fd5b505033600090815260016020818152604080842085855290915282208054908390559155919050565b919050565b610d0b612423565b6000606080610d18611cc6565b6040516321d1336160e11b8152600481018990527f00000000000000000000000000000000000000000000000000000000000000006001600160a01b0316906343a266c29060240161012060405180830381865afa158015610d7e573d6000803e3d6000fd5b505050506040513d601f19601f82011682018060405250810190610da291906129f4565b610100810151909450604a1c600190811603610dd15760405163a97cf58f60e01b815260040160405180910390fd5b610e05604051806080016040528060006001600160a01b031681526020016000815260200160008152602001600081525090565b6000806000336001600160a01b031663fc0c546a6040518163ffffffff1660e01b8152600401602060405180830381865afa158015610e48573d6000803e3d6000fd5b505050506040513d601f19601f82011682018060405250810190610e6c9190612a9d565b90506000336001600160a01b031663313ce5676040518163ffffffff1660e01b8152600401602060405180830381865afa158015610eae573d6000803e3d6000fd5b505050506040513d601f19601f82011682018060405250810190610ed29190612b05565b90506000336001600160a01b031663e5a6b10f6040518163ffffffff1660e01b8152600401602060405180830381865afa158015610f14573d6000803e3d6000fd5b505050506040513d601f19601f82011682018060405250810190610f389190612b05565b6101008b015190915060511c600190811614610f5f57610f5a338f8c84611df1565b610f6a565b610f6a8e8383612072565b94507f00000000000000000000000000000000000000000000000000000000000000006001600160a01b0316635dd8f6aa8f6040518263ffffffff1660e01b8152600401610fba91815260200190565b602060405180830381865afa158015610fd7573d6000803e3d6000fd5b505050506040513d601f19601f82011682018060405250810190610ffb9190612a9d565b6001600160a01b031663b5f1e34d8f6110208d610100015161ffff60189190911c1690565b6040516001600160e01b031960e085901b16815260048101929092526024820152604401602060405180830381865afa158015611061573d6000803e3d6000fd5b505050506040513d601f19601f820116820180604052508101906110859190612b05565b9350838d11156110a757604051625c579160e91b815260040160405180910390fd5b84156110bd576110ba8e8b8f8789612254565b98505b604080516080810182526001600160a01b03949094168452602084018a9052830191909152606082015261010088015190935060531c600190811614801561111d5750600061111188610100015160541c90565b6001600160a01b031614155b156112f457604051633157d5c760e21b8152600481018c90526000907f00000000000000000000000000000000000000000000000000000000000000006001600160a01b03169063c55f571c90602401602060405180830381865afa15801561118a573d6000803e3d6000fd5b505050506040513d601f19601f820116820180604052508101906111ae9190612f02565b90506000604051806101800160405280336001600160a01b031681526020018f6001600160a01b031681526020018e81526020018a6020015181526020018d815260200184815260200185815260200186815260200161121b8b6101000151600160519190911c81161490565b15158152602001600084600281111561123657611236612f23565b14611249576112448b61238c565b611252565b6112528b6123a9565b81526020018c81526020018b815250905061127289610100015160541c90565b6001600160a01b031663a51cfd18826040518263ffffffff1660e01b815260040161129d9190612f39565b6000604051808303816000875af11580156112bc573d6000803e3d6000fd5b505050506040513d6000823e601f3d908101601f191682016040526112e49190810190613031565b91995090975095506112f8915050565b8893505b50508251849150156113525760005b835181101561135057600084828151811061132457611324612eec565b602002602001015160200151905080600014611347576113448184612a8a565b92505b50600101611307565b505b3360009081526001602090815260408083208c845290915290205481111561138d576040516317e53f6760e11b815260040160405180910390fd5b80156113b5573360009081526001602090815260408083208c84529091529020805482900390555b506113c06001600055565b95509550955095915050565b6000816000036113de5750600061148e565b828411156113ee5750600061148e565b6040516321d1336160e11b8152600481018690526000907f00000000000000000000000000000000000000000000000000000000000000006001600160a01b0316906343a266c29060240161012060405180830381865afa158015611457573d6000803e3d6000fd5b505050506040513d601f19601f8201168201806040525081019061147b91906129f4565b905061148a8682878787612254565b9150505b949350505050565b60006114a3848484612072565b90505b9392505050565b6040516321d1336160e11b81526004810184905260009081906001600160a01b037f000000000000000000000000000000000000000000000000000000000000000016906343a266c29060240161012060405180830381865afa158015611518573d6000803e3d6000fd5b505050506040513d601f19601f8201168201806040525081019061153c91906129f4565b90506000836115b7576115b28787848a6001600160a01b031663e5a6b10f6040518163ffffffff1660e01b8152600401602060405180830381865afa158015611589573d6000803e3d6000fd5b505050506040513d601f19601f820116820180604052508101906115ad9190612b05565b611df1565b611684565b61168486886001600160a01b031663313ce5676040518163ffffffff1660e01b8152600401602060405180830381865afa1580156115f9573d6000803e3d6000fd5b505050506040513d601f19601f8201168201806040525081019061161d9190612b05565b896001600160a01b031663e5a6b10f6040518163ffffffff1660e01b8152600401602060405180830381865afa15801561165b573d6000803e3d6000fd5b505050506040513d601f19601f8201168201806040525081019061167f9190612b05565b612072565b9050806000036116995760009250505061148e565b604051632eec7b5560e11b8152600481018790526000907f00000000000000000000000000000000000000000000000000000000000000006001600160a01b031690635dd8f6aa90602401602060405180830381865afa158015611701573d6000803e3d6000fd5b505050506040513d601f19601f820116820180604052508101906117259190612a9d565b6001600160a01b031663b5f1e34d8861174a86610100015161ffff60189190911c1690565b6040516001600160e01b031960e085901b16815260048101929092526024820152604401602060405180830381865afa15801561178b573d6000803e3d6000fd5b505050506040513d601f19601f820116820180604052508101906117af9190612b05565b9050808611156117c5576000935050505061148e565b6117d28784888486612254565b98975050505050505050565b6117e6612423565b60006117f0611cc6565b6040516321d1336160e11b8152600481018690527f00000000000000000000000000000000000000000000000000000000000000006001600160a01b0316906343a266c29060240161012060405180830381865afa158015611856573d6000803e3d6000fd5b505050506040513d601f19601f8201168201806040525081019061187a91906129f4565b61010081015190925060491c6001908116036118a95760405163861e9dcd60e01b815260040160405180910390fd5b3360009081526002602090815260408083208884528252808320855184529091528120546118d8908690612a8a565b90506000807f00000000000000000000000000000000000000000000000000000000000000006001600160a01b0316635dd8f6aa896040518263ffffffff1660e01b815260040161192b91815260200190565b602060405180830381865afa158015611948573d6000803e3d6000fd5b505050506040513d601f19601f8201168201806040525081019061196c9190612a9d565b6001600160a01b031663e8db213089876020015133336001600160a01b031663fc0c546a6040518163ffffffff1660e01b8152600401602060405180830381865afa1580156119bf573d6000803e3d6000fd5b505050506040513d601f19601f820116820180604052508101906119e39190612a9d565b6040518563ffffffff1660e01b8152600401611a029493929190612aba565b6040805180830381865afa158015611a1e573d6000803e3d6000fd5b505050506040513d601f19601f82011682018060405250810190611a429190612ae1565b9150915081831180611a52575081155b15611a7057604051630236b92b60e21b815260040160405180910390fd5b808614611a905760405163e56ea4e760e01b815260040160405180910390fd5b6000336001600160a01b031663e5a6b10f6040518163ffffffff1660e01b8152600401602060405180830381865afa158015611ad0573d6000803e3d6000fd5b505050506040513d601f19601f82011682018060405250810190611af49190612b05565b9050808714611b1257611b0d886106156012600a612c02565b611b14565b875b3360009081526001602090815260408083208d8452909152902054909550851115611b52576040516317e53f6760e11b815260040160405180910390fd5b50503360008181526002602090815260408083208b845282528083208851845282528083209590955591815260018083528482208a83529092529283208054859003905590915550610754565b6000611c7483837f00000000000000000000000000000000000000000000000000000000000000006001600160a01b03166343a266c2866040518263ffffffff1660e01b8152600401611bf491815260200190565b61012060405180830381865afa158015611c12573d6000803e3d6000fd5b505050506040513d601f19601f82011682018060405250810190611c3691906129f4565b866001600160a01b031663e5a6b10f6040518163ffffffff1660e01b8152600401602060405180830381865afa158015611589573d6000803e3d6000fd5b90505b92915050565b336000908152600160209081526040808320858452909152902054611ca3908290612a8a565b336000908152600160209081526040808320958352949052929092209190915550565b600260005403611d1d5760405162461bcd60e51b815260206004820152601f60248201527f5265656e7472616e637947756172643a207265656e7472616e742063616c6c0060448201526064015b60405180910390fd5b6002600055565b6000808060001985870985870292508281108382030391505080600003611d5e57838281611d5457611d54613112565b04925050506114a6565b838110611d8857604051631dcf306360e21b81526004810182905260248101859052604401611d14565b60008486880960026001871981018816978890046003810283188082028403028082028403028082028403028082028403028082028403029081029092039091026000889003889004909101858311909403939093029303949094049190911702949350505050565b6001600160a01b0384166000908152600160209081526040808320868452909152812054808203611e2657600091505061148e565b604051632eec7b5560e11b81526004810186905260009081906001600160a01b037f00000000000000000000000000000000000000000000000000000000000000001690635dd8f6aa90602401602060405180830381865afa158015611e90573d6000803e3d6000fd5b505050506040513d601f19601f82011682018060405250810190611eb49190612a9d565b6001600160a01b031663e8db21308888602001518b8c6001600160a01b031663fc0c546a6040518163ffffffff1660e01b8152600401602060405180830381865afa158015611f07573d6000803e3d6000fd5b505050506040513d601f19601f82011682018060405250810190611f2b9190612a9d565b6040518563ffffffff1660e01b8152600401611f4a9493929190612aba565b6040805180830381865afa158015611f66573d6000803e3d6000fd5b505050506040513d601f19601f82011682018060405250810190611f8a9190612ae1565b6001600160a01b038a1660009081526002602090815260408083208c845282528083208b51845290915281205492945090925090611fc89084612c0e565b90508015801590611fd95750858214155b1561204c5761204981611fee6012600a612c02565b604051635268657960e11b815260048101869052602481018a9052601260448201527f00000000000000000000000000000000000000000000000000000000000000006001600160a01b03169063a4d0caf29060640161066c565b90505b80841161205a57600061205e565b8084035b9998505050505050505050565b6001600055565b60405163d175415360e01b81526004810184905260009081906001600160a01b037f0000000000000000000000000000000000000000000000000000000000000000169063d175415390602401600060405180830381865afa1580156120dc573d6000803e3d6000fd5b505050506040513d6000823e601f3d908101601f191682016040526121049190810190613128565b90506000805b82518110156121af5782818151811061212557612125612eec565b60200260200101516001600160a01b031663a32e1e96886040518263ffffffff1660e01b815260040161215a91815260200190565b602060405180830381865afa158015612177573d6000803e3d6000fd5b505050506040513d601f19601f8201168201806040525081019061219b9190612b05565b6121a59083612a8a565b915060010161210a565b5060006001851461222a57604051635268657960e11b8152600160048201526024810186905260126044820152612225908390670de0b6b3a7640000906001600160a01b037f0000000000000000000000000000000000000000000000000000000000000000169063a4d0caf29060640161066c565b61222c565b815b90508560121461224757612242816012886123c6565b612249565b805b979650505050505050565b6000828403612264575080612383565b600080604051633157d5c760e21b8152600481018990527f00000000000000000000000000000000000000000000000000000000000000006001600160a01b03169063c55f571c90602401602060405180830381865afa1580156122cc573d6000803e3d6000fd5b505050506040513d601f19601f820116820180604052508101906122f09190612f02565b600281111561230157612301612f23565b146123145761230f8661238c565b61231d565b61231d866123a9565b905080600003612331576000915050612383565b600061233e848787611d24565b905061271082036123525791506123839050565b61237e8161236c8861236686612710612c0e565b89611d24565b6123769085612a8a565b612710611d24565b925050505b95945050505050565b60006028826101000151901c61ffff16612710611c779190612c0e565b60006038826101000151901c61ffff16612710611c779190612c0e565b60008282036123d65750826114a6565b82821115612404576123e88383612c0e565b6123f390600a612c02565b6123fd90856131b7565b90506114a6565b61240e8284612c0e565b61241990600a612c02565b6123fd90856131ce565b6040518061012001604052806000815260200160008152602001600081526020016000815260200160008152602001600081526020016000815260200160006001600160a01b03168152602001600081525090565b6001600160a01b038116811461248d57600080fd5b50565b600080604083850312156124a357600080fd5b82356124ae81612478565b946020939093013593505050565b6000806000606084860312156124d157600080fd5b505081359360208301359350604090920135919050565b805182526020808201519083015260408082015190830152606080820151908301526080808201519083015260a0808201519083015260c0808201519083015260e0808201516001600160a01b03169083015261010090810151910152565b610140810161255682856124e8565b826101208301529392505050565b60008083601f84011261257657600080fd5b50813567ffffffffffffffff81111561258e57600080fd5b6020830191508360208285010111156125a657600080fd5b9250929050565b634e487b7160e01b600052604160045260246000fd5b604051610120810167ffffffffffffffff811182821017156125e7576125e76125ad565b60405290565b6040805190810167ffffffffffffffff811182821017156125e7576125e76125ad565b604051601f8201601f1916810167ffffffffffffffff81118282101715612639576126396125ad565b604052919050565b600067ffffffffffffffff82111561265b5761265b6125ad565b50601f01601f191660200190565b600061267c61267784612641565b612610565b905082815283838301111561269057600080fd5b828260208301376000602084830101529392505050565b600082601f8301126126b857600080fd5b611c7483833560208501612669565b600080600080600080600080888a036101408112156126e557600080fd5b89356126f081612478565b98506080601f198201121561270457600080fd5b5060208901965060a0890135955060c0890135945060e089013561272781612478565b935061010089013567ffffffffffffffff8082111561274557600080fd5b6127518c838d01612564565b90955093506101208b013591508082111561276b57600080fd5b506127788b828c016126a7565b9150509295985092959890939650565b60005b838110156127a357818101518382015260200161278b565b50506000910152565b600081518084526127c4816020860160208601612788565b601f01601f19169290920160200192915050565b60006101808083016127ea84896124e8565b61012084018790526101408401919091528451908190526101a083019060209081870160005b8281101561284057815180516001600160a01b031686528401518486015260409094019390830190600101612810565b5050505082810361016084015261224981856127ac565b60006020828403121561286957600080fd5b5035919050565b600080600080600060a0868803121561288857600080fd5b853561289381612478565b94506020860135935060408601359250606086013567ffffffffffffffff808211156128be57600080fd5b818801915088601f8301126128d257600080fd5b6128e189833560208501612669565b935060808801359150808211156128f757600080fd5b50612904888289016126a7565b9150509295509295909350565b6000806000806080858703121561292757600080fd5b5050823594602084013594506040840135936060013592509050565b6000806000806080858703121561295957600080fd5b843561296481612478565b935060208501359250604085013591506060850135801515811461298757600080fd5b939692955090935050565b6000806000606084860312156129a757600080fd5b83356129b281612478565b95602085013595506040909401359392505050565b600080604083850312156129da57600080fd5b50508035926020909101359150565b8051610cfe81612478565b60006101208284031215612a0757600080fd5b612a0f6125c3565b825181526020830151602082015260408301516040820152606083015160608201526080830151608082015260a083015160a082015260c083015160c0820152612a5b60e084016129e9565b60e0820152610100928301519281019290925250919050565b634e487b7160e01b600052601160045260246000fd5b80820180821115611c7757611c77612a74565b600060208284031215612aaf57600080fd5b81516114a681612478565b93845260208401929092526001600160a01b03908116604084015216606082015260800190565b60008060408385031215612af457600080fd5b505080516020909101519092909150565b600060208284031215612b1757600080fd5b5051919050565b600181815b80851115612b59578160001904821115612b3f57612b3f612a74565b80851615612b4c57918102915b93841c9390800290612b23565b509250929050565b600082612b7057506001611c77565b81612b7d57506000611c77565b8160018114612b935760028114612b9d57612bb9565b6001915050611c77565b60ff841115612bae57612bae612a74565b50506001821b611c77565b5060208310610133831016604e8410600b8410161715612bdc575081810a611c77565b612be68383612b1e565b8060001904821115612bfa57612bfa612a74565b029392505050565b6000611c748383612b61565b81810381811115611c7757611c77612a74565b600060808284031215612c3357600080fd5b6040516080810181811067ffffffffffffffff82111715612c5657612c566125ad565b6040528235612c6481612478565b808252506020830135602082015260408301356040820152606083013560608201528091505092915050565b60208152612caa6020820183516001600160a01b03169052565b60006020830151612cc660408401826001600160a01b03169052565b506040830151612d00606084018280516001600160a01b031682526020808201519083015260408082015190830152606090810151910152565b50606083015160e08301526080830151610100818185015260a08501519150610120612d36818601846001600160a01b03169052565b60c086015161014086015260e08601516101608601528186015192506101a0915081610180860152612d6c6101c08601846127ac565b90860151858203601f190183870152909250612d8883826127ac565b9695505050505050565b600082601f830112612da357600080fd5b8151612db161267782612641565b818152846020838601011115612dc657600080fd5b61148e826020830160208701612788565b600067ffffffffffffffff821115612df157612df16125ad565b5060051b60200190565b600080600060608486031215612e1057600080fd5b8351925060208085015167ffffffffffffffff80821115612e3057600080fd5b612e3c88838901612d92565b9450604091508187015181811115612e5357600080fd5b87019050601f81018813612e6657600080fd5b8051612e7461267782612dd7565b81815260069190911b8201840190848101908a831115612e9357600080fd5b928501925b82841015612edc5784848c031215612eb05760008081fd5b612eb86125ed565b8451612ec381612478565b8152848701518782015282529284019290850190612e98565b8096505050505050509250925092565b634e487b7160e01b600052603260045260246000fd5b600060208284031215612f1457600080fd5b8151600381106114a657600080fd5b634e487b7160e01b600052602160045260246000fd5b60208152612f536020820183516001600160a01b03169052565b60006020830151612f6f60408401826001600160a01b03169052565b506040830151606083015260608301516080830152608083015160a083015260a083015160c083015260c083015160e083015260e0830151610100612fdd8185018380516001600160a01b031682526020808201519083015260408082015190830152606090810151910152565b8401511515610180840152506101208301516101a08301526101408301516101e06101c084018190526130146102008501836127ac565b9150610160850151601f198584030182860152612d8883826127ac565b60008060006060848603121561304657600080fd5b8351925060208085015167ffffffffffffffff8082111561306657600080fd5b61307288838901612d92565b945060409150818701518181111561308957600080fd5b87019050601f8101881361309c57600080fd5b80516130aa61267782612dd7565b81815260069190911b8201840190848101908a8311156130c957600080fd5b928501925b82841015612edc5784848c0312156130e65760008081fd5b6130ee6125ed565b84516130f981612478565b81528487015187820152825292840192908501906130ce565b634e487b7160e01b600052601260045260246000fd5b6000602080838503121561313b57600080fd5b825167ffffffffffffffff81111561315257600080fd5b8301601f8101851361316357600080fd5b805161317161267782612dd7565b81815260059190911b8201830190838101908783111561319057600080fd5b928401925b828410156122495783516131a881612478565b82529284019290840190613195565b8082028115828204841417611c7757611c77612a74565b6000826131eb57634e487b7160e01b600052601260045260246000fd5b50049056fea264697066735822122074dcbcadaee7674ec758e811ed99c37899c9802141bf2ac7bf241f1f5714cb5664736f6c63430008140033",
    "linkReferences": {}
  },
  "methodIdentifiers": {
    "balanceOf(address,uint256)": "00fdd58e",
    "currentOverflowOf(address,uint256)": "d49031c0",
    "currentReclaimableOverflowOf(address,uint256,uint256,bool)": "c294b2f4",
    "currentReclaimableOverflowOf(uint256,uint256,uint256,uint256)": "a57c7f59",
    "currentTotalOverflowOf(uint256,uint256,uint256)": "b753d7e9",
    "directory()": "c41c2f24",
    "fundingCycleStore()": "557e7155",
    "prices()": "d3419bf3",
    "recordAddedBalanceFor(uint256,uint256)": "e7c8e3e3",
    "recordDistributionFor(uint256,uint256,uint256)": "c6644597",
    "recordMigration(uint256)": "6bb6a5ad",
    "recordPaymentFrom(address,(address,uint256,uint256,uint256),uint256,uint256,address,string,bytes)": "2fa1b391",
    "recordRedemptionFor(address,uint256,uint256,string,bytes)": "a2df1f95",
    "recordUsedAllowanceOf(uint256,uint256,uint256)": "25386715",
    "usedDistributionLimitOf(address,uint256,uint256)": "e8ba563a",
    "usedOverflowAllowanceOf(address,uint256,uint256)": "d4c3a8d2"
  },
  "id": 58
}