{
  "abi": [
    {
      "inputs": [
        {
          "internalType": "contract IJBDirectory",
          "name": "_directory",
          "type": "address"
        }
      ],
      "stateMutability": "nonpayable",
      "type": "constructor"
    },
    {
      "inputs": [],
      "name": "CONTROLLER_UNAUTHORIZED",
      "type": "error"
    },
    {
      "inputs": [],
      "name": "INVALID_BALLOT",
      "type": "error"
    },
    {
      "inputs": [],
      "name": "INVALID_DISCOUNT_RATE",
      "type": "error"
    },
    {
      "inputs": [],
      "name": "INVALID_DURATION",
      "type": "error"
    },
    {
      "inputs": [],
      "name": "INVALID_TIMEFRAME",
      "type": "error"
    },
    {
      "inputs": [],
      "name": "INVALID_WEIGHT",
      "type": "error"
    },
    {
      "inputs": [],
      "name": "NO_SAME_BLOCK_RECONFIGURATION",
      "type": "error"
    },
    {
      "inputs": [
        {
          "internalType": "uint256",
          "name": "prod1",
          "type": "uint256"
        },
        {
          "internalType": "uint256",
          "name": "denominator",
          "type": "uint256"
        }
      ],
      "name": "PRBMath__MulDivOverflow",
      "type": "error"
    },
    {
      "anonymous": false,
      "inputs": [
        {
          "indexed": true,
          "internalType": "uint256",
          "name": "configuration",
          "type": "uint256"
        },
        {
          "indexed": true,
          "internalType": "uint256",
          "name": "projectId",
          "type": "uint256"
        },
        {
          "components": [
            {
              "internalType": "uint256",
              "name": "duration",
              "type": "uint256"
            },
            {
              "internalType": "uint256",
              "name": "weight",
              "type": "uint256"
            },
            {
              "internalType": "uint256",
              "name": "discountRate",
              "type": "uint256"
            },
            {
              "internalType": "contract IJBFundingCycleBallot",
              "name": "ballot",
              "type": "address"
            }
          ],
          "indexed": false,
          "internalType": "struct JBFundingCycleData",
          "name": "data",
          "type": "tuple"
        },
        {
          "indexed": false,
          "internalType": "uint256",
          "name": "metadata",
          "type": "uint256"
        },
        {
          "indexed": false,
          "internalType": "uint256",
          "name": "mustStartAtOrAfter",
          "type": "uint256"
        },
        {
          "indexed": false,
          "internalType": "address",
          "name": "caller",
          "type": "address"
        }
      ],
      "name": "Configure",
      "type": "event"
    },
    {
      "anonymous": false,
      "inputs": [
        {
          "indexed": true,
          "internalType": "uint256",
          "name": "configuration",
          "type": "uint256"
        },
        {
          "indexed": true,
          "internalType": "uint256",
          "name": "projectId",
          "type": "uint256"
        },
        {
          "indexed": true,
          "internalType": "uint256",
          "name": "basedOn",
          "type": "uint256"
        }
      ],
      "name": "Init",
      "type": "event"
    },
    {
      "inputs": [
        {
          "internalType": "uint256",
          "name": "_projectId",
          "type": "uint256"
        },
        {
          "components": [
            {
              "internalType": "uint256",
              "name": "duration",
              "type": "uint256"
            },
            {
              "internalType": "uint256",
              "name": "weight",
              "type": "uint256"
            },
            {
              "internalType": "uint256",
              "name": "discountRate",
              "type": "uint256"
            },
            {
              "internalType": "contract IJBFundingCycleBallot",
              "name": "ballot",
              "type": "address"
            }
          ],
          "internalType": "struct JBFundingCycleData",
          "name": "_data",
          "type": "tuple"
        },
        {
          "internalType": "uint256",
          "name": "_metadata",
          "type": "uint256"
        },
        {
          "internalType": "uint256",
          "name": "_mustStartAtOrAfter",
          "type": "uint256"
        }
      ],
      "name": "configureFor",
      "outputs": [
        {
          "components": [
            {
              "internalType": "uint256",
              "name": "number",
              "type": "uint256"
            },
            {
              "internalType": "uint256",
              "name": "configuration",
              "type": "uint256"
            },
            {
              "internalType": "uint256",
              "name": "basedOn",
              "type": "uint256"
            },
            {
              "internalType": "uint256",
              "name": "start",
              "type": "uint256"
            },
            {
              "internalType": "uint256",
              "name": "duration",
              "type": "uint256"
            },
            {
              "internalType": "uint256",
              "name": "weight",
              "type": "uint256"
            },
            {
              "internalType": "uint256",
              "name": "discountRate",
              "type": "uint256"
            },
            {
              "internalType": "contract IJBFundingCycleBallot",
              "name": "ballot",
              "type": "address"
            },
            {
              "internalType": "uint256",
              "name": "metadata",
              "type": "uint256"
            }
          ],
          "internalType": "struct JBFundingCycle",
          "name": "",
          "type": "tuple"
        }
      ],
      "stateMutability": "nonpayable",
      "type": "function"
    },
    {
      "inputs": [
        {
          "internalType": "uint256",
          "name": "_projectId",
          "type": "uint256"
        }
      ],
      "name": "currentBallotStateOf",
      "outputs": [
        {
          "internalType": "enum JBBallotState",
          "name": "",
          "type": "uint8"
        }
      ],
      "stateMutability": "view",
      "type": "function"
    },
    {
      "inputs": [
        {
          "internalType": "uint256",
          "name": "_projectId",
          "type": "uint256"
        }
      ],
      "name": "currentOf",
      "outputs": [
        {
          "components": [
            {
              "internalType": "uint256",
              "name": "number",
              "type": "uint256"
            },
            {
              "internalType": "uint256",
              "name": "configuration",
              "type": "uint256"
            },
            {
              "internalType": "uint256",
              "name": "basedOn",
              "type": "uint256"
            },
            {
              "internalType": "uint256",
              "name": "start",
              "type": "uint256"
            },
            {
              "internalType": "uint256",
              "name": "duration",
              "type": "uint256"
            },
            {
              "internalType": "uint256",
              "name": "weight",
              "type": "uint256"
            },
            {
              "internalType": "uint256",
              "name": "discountRate",
              "type": "uint256"
            },
            {
              "internalType": "contract IJBFundingCycleBallot",
              "name": "ballot",
              "type": "address"
            },
            {
              "internalType": "uint256",
              "name": "metadata",
              "type": "uint256"
            }
          ],
          "internalType": "struct JBFundingCycle",
          "name": "fundingCycle",
          "type": "tuple"
        }
      ],
      "stateMutability": "view",
      "type": "function"
    },
    {
      "inputs": [],
      "name": "directory",
      "outputs": [
        {
          "internalType": "contract IJBDirectory",
          "name": "",
          "type": "address"
        }
      ],
      "stateMutability": "view",
      "type": "function"
    },
    {
      "inputs": [
        {
          "internalType": "uint256",
          "name": "_projectId",
          "type": "uint256"
        },
        {
          "internalType": "uint256",
          "name": "_configuration",
          "type": "uint256"
        }
      ],
      "name": "get",
      "outputs": [
        {
          "components": [
            {
              "internalType": "uint256",
              "name": "number",
              "type": "uint256"
            },
            {
              "internalType": "uint256",
              "name": "configuration",
              "type": "uint256"
            },
            {
              "internalType": "uint256",
              "name": "basedOn",
              "type": "uint256"
            },
            {
              "internalType": "uint256",
              "name": "start",
              "type": "uint256"
            },
            {
              "internalType": "uint256",
              "name": "duration",
              "type": "uint256"
            },
            {
              "internalType": "uint256",
              "name": "weight",
              "type": "uint256"
            },
            {
              "internalType": "uint256",
              "name": "discountRate",
              "type": "uint256"
            },
            {
              "internalType": "contract IJBFundingCycleBallot",
              "name": "ballot",
              "type": "address"
            },
            {
              "internalType": "uint256",
              "name": "metadata",
              "type": "uint256"
            }
          ],
          "internalType": "struct JBFundingCycle",
          "name": "fundingCycle",
          "type": "tuple"
        }
      ],
      "stateMutability": "view",
      "type": "function"
    },
    {
      "inputs": [
        {
          "internalType": "uint256",
          "name": "",
          "type": "uint256"
        }
      ],
      "name": "latestConfigurationOf",
      "outputs": [
        {
          "internalType": "uint256",
          "name": "",
          "type": "uint256"
        }
      ],
      "stateMutability": "view",
      "type": "function"
    },
    {
      "inputs": [
        {
          "internalType": "uint256",
          "name": "_projectId",
          "type": "uint256"
        }
      ],
      "name": "latestConfiguredOf",
      "outputs": [
        {
          "components": [
            {
              "internalType": "uint256",
              "name": "number",
              "type": "uint256"
            },
            {
              "internalType": "uint256",
              "name": "configuration",
              "type": "uint256"
            },
            {
              "internalType": "uint256",
              "name": "basedOn",
              "type": "uint256"
            },
            {
              "internalType": "uint256",
              "name": "start",
              "type": "uint256"
            },
            {
              "internalType": "uint256",
              "name": "duration",
              "type": "uint256"
            },
            {
              "internalType": "uint256",
              "name": "weight",
              "type": "uint256"
            },
            {
              "internalType": "uint256",
              "name": "discountRate",
              "type": "uint256"
            },
            {
              "internalType": "contract IJBFundingCycleBallot",
              "name": "ballot",
              "type": "address"
            },
            {
              "internalType": "uint256",
              "name": "metadata",
              "type": "uint256"
            }
          ],
          "internalType": "struct JBFundingCycle",
          "name": "fundingCycle",
          "type": "tuple"
        },
        {
          "internalType": "enum JBBallotState",
          "name": "ballotState",
          "type": "uint8"
        }
      ],
      "stateMutability": "view",
      "type": "function"
    },
    {
      "inputs": [
        {
          "internalType": "uint256",
          "name": "_projectId",
          "type": "uint256"
        }
      ],
      "name": "queuedOf",
      "outputs": [
        {
          "components": [
            {
              "internalType": "uint256",
              "name": "number",
              "type": "uint256"
            },
            {
              "internalType": "uint256",
              "name": "configuration",
              "type": "uint256"
            },
            {
              "internalType": "uint256",
              "name": "basedOn",
              "type": "uint256"
            },
            {
              "internalType": "uint256",
              "name": "start",
              "type": "uint256"
            },
            {
              "internalType": "uint256",
              "name": "duration",
              "type": "uint256"
            },
            {
              "internalType": "uint256",
              "name": "weight",
              "type": "uint256"
            },
            {
              "internalType": "uint256",
              "name": "discountRate",
              "type": "uint256"
            },
            {
              "internalType": "contract IJBFundingCycleBallot",
              "name": "ballot",
              "type": "address"
            },
            {
              "internalType": "uint256",
              "name": "metadata",
              "type": "uint256"
            }
          ],
          "internalType": "struct JBFundingCycle",
          "name": "fundingCycle",
          "type": "tuple"
        }
      ],
      "stateMutability": "view",
      "type": "function"
    }
  ],
  "bytecode": {
    "object": "0x60a060405234801561001057600080fd5b5060405161146538038061146583398101604081905261002f91610040565b6001600160a01b0316608052610070565b60006020828403121561005257600080fd5b81516001600160a01b038116811461006957600080fd5b9392505050565b6080516113d36100926000396000818161011e01526103e801526113d36000f3fe608060405234801561001057600080fd5b50600436106100885760003560e01c8063a249d4251161005b578063a249d42514610106578063c41c2f2414610119578063c55f571c14610158578063ebc8ca1f1461017857600080fd5b80632cee6deb1461008d57806343a266c2146100c05780635c550078146100e0578063669e48aa146100f3575b600080fd5b6100ad61009b3660046110c8565b60036020526000908152604090205481565b6040519081526020015b60405180910390f35b6100d36100ce3660046110c8565b610199565b6040516100b79190611140565b6100d36100ee3660046110c8565b610298565b6100d361010136600461114f565b6103ac565b6100d3610114366004611171565b6103be565b6101407f000000000000000000000000000000000000000000000000000000000000000081565b6040516001600160a01b0390911681526020016100b7565b61016b6101663660046110c8565b61075a565b6040516100b791906111f0565b61018b6101863660046110c8565b61078e565b6040516100b79291906111fe565b6101a1611073565b60008281526003602052604081205490036101c7576101c16000806107d1565b92915050565b60006101d283610895565b90506101dc611073565b8115610210576101ec84836107d1565b90506101f8848261094e565b15610204579392505050565b80604001519150610253565b600084815260036020526040902054915061022b84836107d1565b9050610237848261094e565b15806102465750806060015142105b1561025357806040015191505b8160000361026e576102666000806107d1565b949350505050565b61027884836107d1565b9050806080015160000361028d579392505050565b610266816001610983565b6102a0611073565b60008281526003602052604081205490036102c0576101c16000806107d1565b60006102cb83610a51565b90508015610309576102dd83826107d1565b91506102e9838361094e565b156102f45750919050565b6103028383604001516107d1565b9150610342565b6000838152600360205260409020546103239084906107d1565b915042826060015111156103425761033f8383604001516107d1565b91505b8160800151600003610360576103596000806107d1565b9392505050565b61036a838361094e565b1561037a57610359826000610983565b6103888383604001516107d1565b915081608001516000036103a1576103596000806107d1565b610359826000610983565b6103b4611073565b61035983836107d1565b6103c6611073565b604051632eec7b5560e11b815260048101869052859033906001600160a01b037f00000000000000000000000000000000000000000000000000000000000000001690635dd8f6aa90602401602060405180830381865afa15801561042f573d6000803e3d6000fd5b505050506040513d601f19601f820116820180604052508101906104539190611233565b6001600160a01b03161461047a57604051632adfdd0560e21b815260040160405180910390fd5b63ffffffff853511156104a057604051630c51c95b60e21b815260040160405180910390fd5b633b9aca00856040013511156104c957604051632459513560e01b815260040160405180910390fd5b6affffffffffffffffffffff602086013511156104f95760405163698f22ad60e01b815260040160405180910390fd5b42831015610505574292505b66ffffffffffffff610518863585611266565b111561053757604051630ac6115360e41b815260040160405180910390fd5b60006105496080870160608801611279565b6001600160a01b03161461064d5760006105696080870160608801611279565b9050806001600160a01b03163b60000361059657604051635401398160e01b815260040160405180910390fd5b6105a66080870160608801611279565b6040516301ffc9a760e01b8152637ba3dfb360e01b60048201526001600160a01b0391909116906301ffc9a790602401602060405180830381865afa92505050801561060f575060408051601f3d908101601f1916820190925261060c91810190611296565b60015b61062c57604051635401398160e01b815260040160405180910390fd5b8061064a57604051635401398160e01b815260040160405180910390fd5b50505b4261065e8782602089013587610ade565b60006106706080880160608901611279565b6001600160a01b03161415806106865750853515155b80610695575060008660400135115b156106e35760006106ac6080880160608901611279565b600089815260208181526040808320868452909152908190206001600160a01b0392909216893560a01b179089013560c01b179055505b841561070657600087815260026020908152604080832084845290915290208590555b86817f1175572e9e7787125bbb2c1175e626d6fa90191342319fa2c35d8bd194a8a1b68888883360405161073d94939291906112b8565b60405180910390a361074f87826107d1565b979650505050505050565b6000818152600360205260408120548161077484836107d1565b905061026684826020015183606001518460400151610c4b565b610796611073565b6000828152600360205260408120546107af84826107d1565b92506107c984846020015185606001518660400151610c4b565b915050915091565b6107d9611073565b81156101c157602081810183905260008481526001825260408082208583528352808220546affffffffffffffffffffff811660a080870191909152605882901c66ffffffffffffff90811684880152609083901c16606087015260c89190911c85528683528284528183208684528452818320546001600160a01b03811660e08701529081901c63ffffffff908116608087015260c091821c1690850152948152600282528481209381529290529190205461010082015290565b600081815260036020526040812054906108af83836107d1565b9050600081608001511180156108d85750806080015181606001516108d49190611266565b4210155b156108e65750600092915050565b806060015142106108fb576020015192915050565b600061090b8483604001516107d1565b9050600081608001511180156109345750806080015181606001516109309190611266565b4210155b15610943575060009392505050565b506040015192915050565b6000600161096a84846020015185606001518660400151610c4b565b600281111561097b5761097b6111b8565b149392505050565b61098b611073565b600082156109b25760808401516109a29042611312565b6109ad906001611266565b6109bd565b6109bd426001611266565b905060006109cb8583610d0f565b905060006109d98683610d9b565b9050604051806101200160405280828152602001876020015181526020018760400151815260200183815260200187608001518152602001610a1b8885610ded565b81526020018760c0015181526020018760e001516001600160a01b03168152602001876101000151815250935050505092915050565b60008181526003602052604081205490610a6b83836107d1565b905080606001514210610a815750600092915050565b8051600103610a905750919050565b6000610aa08483604001516107d1565b905060008160800151118015610ac8575080608001518260600151610ac59190611312565b42105b15610ad7575060009392505050565b5050919050565b6000848152600360205260408120549003610b0f57610b0a84610b026000806107d1565b858486610e99565b610c45565b6000610b1a85610895565b905080600003610b3557506000848152600360205260409020545b6000610b4186836107d1565b9050610b4d868261094e565b1580610b5c5750806060015142105b15610b7257610b6f8682604001516107d1565b90505b84816020015103610b965760405163215da85760e11b815260040160405180910390fd5b60e08101516000906001600160a01b031615610c21578160e001516001600160a01b0316630fb5a6b46040518163ffffffff1660e01b8152600401602060405180830381865afa158015610bee573d6000803e3d6000fd5b505050506040513d601f19601f82011682018060405250810190610c129190611325565b610c1c9087611266565b610c24565b60005b9050610c41878388878511610c395787610c3b565b845b89610e99565b5050505b50505050565b600081600003610c5d57506001610266565b6000610c6986846107d1565b60e08101519091506001600160a01b0316610c88576001915050610266565b60e0810151604051637416790760e01b81526004810188905260248101879052604481018690526001600160a01b0390911690637416790790606401602060405180830381865afa158015610ce1573d6000803e3d6000fd5b505050506040513d601f19601f82011682018060405250810190610d05919061133e565b9695505050505050565b60008260800151600003610d245750806101c1565b600083608001518460600151610d3a9190611266565b9050828110610d4a5790506101c1565b6080840151600090610d5c8386611312565b610d669190611375565b9050610d728185611312565b92505b82841115610d93576080850151610d8c9084611266565b9250610d75565b505092915050565b60008260800151600003610dbd578251610db6906001611266565b90506101c1565b6000836060015183610dcf9190611312565b9050836080015181610de19190611389565b84516102669190611266565b60008260800151600003610e2157610db68360a001518460c00151633b9aca00610e179190611312565b633b9aca00610fa3565b5060a082015160c0830151156101c1576000836060015183610e439190611312565b9050600084608001518281610e5a57610e5a61135f565b04905060005b81811015610e9057610e80848760c00151633b9aca00610e179190611312565b93508315610e9057600101610e60565b50505092915050565b8351600003610edc5760208085015160008781526001808452604080832088845290945292902060589190911b8317609085901b17600160c81b17905550610f59565b6000610ee88584610d0f565b905060008211610f0157610efc8582610ded565b610f12565b81600114610f0f5781610f12565b60005b91506000610f208683610d9b565b60208088015160008a81526001835260408082208a83529093529190912060589190911b8517609085901b1760c883901b179055905050505b60008581526003602090815260408083208690559086015190519091879186917ff1bd4f3fcb4e0b193abc7e4002c0284e25086269a02de2e4c52045a91f64703791a45050505050565b6000808060001985870985870292508281108382030391505080600003610fdd57838281610fd357610fd361135f565b0492505050610359565b83811061100b57604051631dcf306360e21b8152600481018290526024810185905260440160405180910390fd5b600084868809600260036001881981018916988990049182028318808302840302808302840302808302840302808302840302808302840302918202909203026000889003889004909101858311909403939093029303949094049190911702949350505050565b6040518061012001604052806000815260200160008152602001600081526020016000815260200160008152602001600081526020016000815260200160006001600160a01b03168152602001600081525090565b6000602082840312156110da57600080fd5b5035919050565b805182526020808201519083015260408082015190830152606080820151908301526080808201519083015260a0808201519083015260c0808201519083015260e0808201516001600160a01b03169083015261010090810151910152565b61012081016101c182846110e1565b6000806040838503121561116257600080fd5b50508035926020909101359150565b60008060008084860360e081121561118857600080fd5b853594506080601f198201121561119e57600080fd5b50929560208501955060a08501359460c001359350915050565b634e487b7160e01b600052602160045260246000fd5b600381106111ec57634e487b7160e01b600052602160045260246000fd5b9052565b602081016101c182846111ce565b610140810161120d82856110e1565b6103596101208301846111ce565b6001600160a01b038116811461123057600080fd5b50565b60006020828403121561124557600080fd5b81516103598161121b565b634e487b7160e01b600052601160045260246000fd5b808201808211156101c1576101c1611250565b60006020828403121561128b57600080fd5b81356103598161121b565b6000602082840312156112a857600080fd5b8151801515811461035957600080fd5b84358152602080860135908201526040808601359082015260e0810160608601356112e28161121b565b6001600160a01b039081166060840152608083019590955260a0820193909352921660c090920191909152919050565b818103818111156101c1576101c1611250565b60006020828403121561133757600080fd5b5051919050565b60006020828403121561135057600080fd5b81516003811061035957600080fd5b634e487b7160e01b600052601260045260246000fd5b6000826113845761138461135f565b500690565b6000826113985761139861135f565b50049056fea264697066735822122008e54e4bbf7e7deded66d281105a4a6a0df0c040241a215d04103e284e4fb24c64736f6c63430008140033",
    "linkReferences": {}
  },
  "methodIdentifiers": {
    "configureFor(uint256,(uint256,uint256,uint256,address),uint256,uint256)": "a249d425",
    "currentBallotStateOf(uint256)": "c55f571c",
    "currentOf(uint256)": "43a266c2",
    "directory()": "c41c2f24",
    "get(uint256,uint256)": "669e48aa",
    "latestConfigurationOf(uint256)": "2cee6deb",
    "latestConfiguredOf(uint256)": "ebc8ca1f",
    "queuedOf(uint256)": "5c550078"
  },
  "id": 54
}